:100000000C9496000C94B3000C94B3000C94B300C1
:100010000C94B3000C94B3000C94B3000C94B30094
:100020000C94B3000C94B3000C94B3000C94B30084
:100030000C94B3000C94B3000C94B3000C94B30074
:100040000C94B5000C94B3000C94B3000C94B30062
:100050000C94B3000C94B3000C94B3000C94B30054
:100060000C94B3000C94B300036EDB363D9A99995F
:10007000993DABAAAA2A3E000000803F084AD73B20
:100080003BCE016E84BCBFFDC12F3D6C74319ABD67
:1000900056833DDA3D00C77F11BED9E4BB4C3E918B
:1000A0006BAAAABE000000803F072C7AA5BA6CC5D7
:1000B00090DA3B9365FC8BBC53F810FD3C56928361
:1000C0004DBD879D3AB63DCBC9BF5BBE73DA0FC944
:1000D0003F05A84CCDB2D44EB93836A9020C50B960
:1000E000918688083CA6AAAA2ABE000000803F008C
:1000F0004E414E494E495459494E46CDCCCC3D0A0D
:10010000D7233C17B7D13877CC2B329595E6241FEF
:10011000B14F0A000020410000C84200401C4620A8
:10012000BCBE4CCA1B0E5AAEC59D740011241FBE26
:10013000CFEFD8E0DEBFCDBF13E0A0E0B1E0E6E155
:10014000FFE202C005900D92A036B107D9F723E077
:10015000A0E6B3E001C01D92A63BB207E1F70E9402
:10016000380E0C9489170C9400001F920F920FB652
:100170000F9211248F939F93AF93BF93809160034D
:1001800090916103A0916203B09163030196A11D58
:10019000B11D8093600390936103A0936203B093B9
:1001A0006303BF91AF919F918F910F900FBE0F90FE
:1001B0001F9018956AE00E94080F20E1829F900D21
:1001C0001124892F0895982F92959F708F702AE09F
:1001D000929F800D112408958130910539F020F00F
:1001E000029739F48CE003C088E401C088E1809371
:1001F000B8008091B80090E00E94F20D8AE00E9461
:10020000D00D1092B90084E08093BC00089584EA78
:100210008093BC008091BC0087FFFCCF0895880FBD
:100220006170682B6093BB0084E88093BC00809170
:10023000BC0087FFFCCF089584E98093BC0008953B
:100240008093BB0084E88093BC008091BC0087FF52
:10025000FCCF089584EC8093BC008091BC0087FFA4
:10026000FCCF8091BB00089584E88093BC0080910E
:10027000BC0087FFFCCF8091BB0008950C94070160
:100280008091B900887F089584EA8093BC008091B2
:10029000BC0087FFFCCF9091B900987F81E0983037
:1002A00009F480E0089584EA8093BC008091BC004A
:1002B00087FFFCCF9091B900987F81E0903109F4DD
:1002C00080E0089580FF02C020E401C028E180930F
:1002D000BB0084E88093BC008091BC0087FFFCCF0A
:1002E0009091B900987F81E0921301C080E0089559
:1002F0008093BB0084E88093BC008091BC0087FFA2
:10030000FCCF9091B900987F81E0983209F480E0A9
:10031000089584EC8093BC008091BC0087FFFCCFE3
:100320008091B900887F803519F48091BB000895D1
:100330008FEF089584E88093BC008091BC0087FF14
:10034000FCCF8091B900887F883519F48091BB007B
:1003500008958FEF089584E98093BC000895AF92CB
:10036000BF92CF92DF92EF92FF920F931F93CF93A2
:10037000DF93CDB7DEB7C054D1090FB6F894DEBF16
:100380000FBECDBFCE0101966C0180E4F601119243
:100390008A95E9F700E010E084E9E82E9EEFA92EA7
:1003A00092E0B92E0E9407018091B900887FFF2456
:1003B000F394883009F0F12C60E070E0802F0E9407
:1003C0000F018091B900887F883109F4F394E0929D
:1003D000BC00F2E0FF1215C08EEE92E00E94EA0D22
:1003E0001F930F93BF92AF92DF92CF920E9413138D
:1003F000C6010E94EA0D0F900F900F900F900F9082
:100400000F900F5F1F4F0F37110561F6C05CDF4F74
:100410000FB6F894DEBF0FBECDBFDF91CF911F9115
:100420000F91FF90EF90DF90CF90BF90AF90089525
:10043000CF93C82F0E94070160E070E08CE30E9418
:100440000F0180E00E9420018C2F0E942001CF919B
:100450000C941C01CF93C82F0E94070160E070E04C
:100460008CE30E940F0180E40E9420018C2F0E94E7
:100470002001CF910C941C01CF93DF9381E20E9465
:10048000180280E00E9418028FE70E94180282E2A0
:100490000E94180280E00E94180287E00E94180261
:1004A0000E94070160E070E08CE30E940F0180E48D
:1004B0000E942001C0E0D4E080E00E94200121974A
:1004C000D9F70E941C0181E20E94180280E00E947C
:1004D00018028FE70E94180282E20E94180280E050
:1004E0000E94180287E00E9418020E94070160E043
:1004F00070E08CE30E940F0180E40E942001DF91F4
:10050000CF910C941C01CF93DF93883040F567FDA9
:1005100026C0D62FC82F8093AA036093AB0381E235
:100520000E9418028D2F0E9418028FE70E94180265
:1005300082E20E9418028C2F0E94180287E00E941B
:1005400018020E94070160E070E08CE30E940F0136
:1005500080E40E942001DF91CF910C941C01DF9177
:10056000CF9108958091AA038F5F87708093AA032B
:1005700060E00C9483020F931F93CF93DF93C82FF7
:100580008091AB0390E08B37910554F4CA3041F071
:10059000C05285E0C89FE001112400E010E005C0D2
:1005A0000E94B202CA30A1F71AC0F801EC0FFD1F79
:1005B000E050FF4F80810E942A028091AB038F5F41
:1005C0008093AB030F5F1F4F0530110571F780E07B
:1005D0000E942A028091AB038F5F8093AB03DF916F
:1005E000CF911F910F910895883028F48093AA032A
:1005F00060E00C9483020895CF93DF93EC0189911E
:10060000882319F00E94BB02FACFDF91CF910895A1
:1006100080E090E00E94EC008EEA0E94180285EDD6
:100620000E94180280E80E94180288EA0E941802BC
:100630008FE30E94180283ED0E94180280E00E945E
:10064000180280E40E9418028DE80E94180284E1DA
:100650000E94180280E20E94180280E00E941802A4
:1006600081EA0E94180288EC0E9418028AED0E941A
:10067000180282E10E94180281E80E9418028FECA1
:100680000E94180289ED0E94180281EF0E94180250
:100690008BED0E94180280E40E94180284EA0E94F6
:1006A000180286EA0E9418028FEA0E9418020C942F
:1006B0003C027F928F929F92AF92BF92CF92DF9235
:1006C000EF92FF920F931F93CF93DF93882E7B01BE
:1006D00027E0281708F4812C912CF701E90DF11D72
:1006E0008081882309F440C0D6E06F01CD2F6D2FA3
:1006F000882D0E948302712CF601E70DF11D008107
:10070000002329F1C7FD23C0005285E0089F800126
:100710001124A12CB12CC7FD10C0F501E00FF11F71
:10072000E050FF4F80810E942A02CF5F9FEFA91AFD
:10073000B90A25E0A216B10471F780E00E942A02EE
:1007400085E38A95F1F70000CF5F7394D5CF9FEFD3
:1007500029EF80E0915020408040E1F700C0000088
:10076000D15021F69394B9CFDF91CF911F910F9182
:10077000FF90EF90DF90CF90BF90AF909F908F90C1
:100780007F9008952F923F924F925F926F927F9247
:100790008F929F92AF92BF92CF92DF92EF92FF9291
:1007A0000F931F93CF93DF93CDB7DEB7C456D10914
:1007B0000FB6F894DEBF0FBECDBF65969FAF8EAF6C
:1007C000659767967FAF6EAF679769965FAF4EAFDD
:1007D00069976B963FAF2EAF6B976D961FAF0EAFBD
:1007E0006D976F96FFAEEEAE6F97A196DFAECEAE71
:1007F000A197A396BFAEAEAEA397A5969FAE8EAEC1
:10080000A5978E010C5B1F4F8AE0F801282F1192EB
:100810002A95E9F79DE07E013EE0E30EF11CF70129
:10082000292F11922A95E9F7FE0131966F01119255
:100830009A95E9F72E01FFE44F0E511CF201108248
:100840003E01FEE46F0E711CF30110825E01FAE3BB
:10085000AF0EB11CF501282F11922A95E9F7FE0180
:10086000F096282F11922A95E9F74E013BE1830E6D
:10087000911C9BE0F40111929A95E9F71E01F6E2B2
:100880002F0E311CF10111928A95E9F70E94EC0DAF
:10089000882309F449C30E94C90D80930000843263
:1008A000A9F70E94C90D80930000873479F70E9450
:1008B000C90D809300008E3409F0AAC10E94C90DB1
:1008C00080930000823511F70E94C90D80930000CB
:1008D0008D34E1F60E94C90D809300008334B1F697
:1008E0000E94C90D809300008C3281F60E94C90DD0
:1008F000809300008C3209F477C163961FAE639732
:10090000809100008C3299F0F80163962FAD6397C7
:10091000E20FF11D80830E94C90D80930000639651
:100920003FAD63973F5F63963FAF6397E9CF6F96A5
:10093000EEADFFAD6F9711830083809100008C3284
:1009400009F0A4CF0E94C90D80930000813409F002
:100950003DC10E94C90D809300008C3209F096CFF2
:100960000E94C90D8093000063961FAE639780912B
:1009700000008C3299F0F70163962FAD6397E20F78
:10098000F11D80830E94C90D8093000063963FADE6
:1009900063973F5F63963FAF6397E9CF6596EEAD90
:1009A000FFAD6597F182E082809100008C3209F002
:1009B0006DCF0E94C90D809300008E3419F08335ED
:1009C00009F064CFF20180830E94C90D809300007A
:1009D0006996EEADFFAD699751824082809100002B
:1009E0008C3209F053CF0E94C90D809300006396AA
:1009F0001FAE6397809100008C3299F0F6016396E8
:100A00002FAD6397E20FF11D80830E94C90D809383
:100A1000000063963FAD63973F5F63963FAF639778
:100A2000E9CF6796EEADFFAD6797D182C082809126
:100A300000008C3209F02ACF0E94C90D809300007B
:100A4000853419F0873509F021CFF30180830E94A6
:100A5000C90D809300006B96EEADFFAD6B97718270
:100A60006082809100008C3209F010CF0E94C90D85
:100A70008093000063961FAE6397809100008C32D4
:100A8000B1F0EAE3F0E0EC0FFD1F63962FAD639742
:100A9000E20FF11D80830E94C90D809300006396D0
:100AA0003FAD63973F5F63963FAF6397E6CF6D9629
:100AB000EEADFFAD6D97B182A082809100008C32C7
:100AC00009F0E4CE0E94C90D8093000063961FAE2A
:100AD0006397809100008C32B1F0E0E3F0E0EC0F1E
:100AE000FD1F63962FAD6397E20FF11D80830E9477
:100AF000C90D8093000063963FAD63973F5F639697
:100B00003FAF6397E6CF20E330E02C0F3D1FA39665
:100B1000EEADFFADA39731832083809100008C322E
:100B200009F0B4CE0E94C90D8093000063961FAEF9
:100B30006397809100008C32B1F0EBE1F0E0EC0FB4
:100B4000FD1F63963FAD6397E30FF11D80830E9405
:100B5000C90D8093000063968FAD63978F5F639696
:100B60008FAF6397E6CFA196EEADFFADA1979182CF
:100B70008082809100008C3209F088CE0E94C90DDD
:100B80008093000063961FAE6397809100008C32C3
:100B9000B1F0E6E2F0E0EC0FFD1F63962FAD639736
:100BA000E20FF11D80830E94C90D809300006396BF
:100BB0003FAD63973F5F63963FAF6397E6CFA596E0
:100BC000EEADFFADA5973182208260CE863509F06B
:100BD0005DCE84E093E00E94DE0D60E080E00E9444
:100BE000830283E193E011C00E94C90D809300004D
:100BF000863509F04BCE81E293E00E94DE0D60E085
:100C000080E00E9483028BE293E00E94FC023ECED1
:100C1000803509F03BCE0E94C90D809300008235DB
:100C200009F034CE0E94C90D809300008D3409F084
:100C30002DCE0E94C90D80930000833409F026CE8A
:100C40000E94C90D809300008C3209F01FCE0E94D3
:100C5000C90D809300008C3209F45AC163961FAE0F
:100C60006397809100008C3299F0F80163962FAD64
:100C70006397E20FF11D80830E94C90D80930000ED
:100C800063963FAD63973F5F63963FAF6397E9CF4E
:100C90006F96EEADFFAD6F971183008380910000DA
:100CA0008C3209F0F3CD0E94C90D8093000081348D
:100CB00009F028C10E94C90D809300008C3209F010
:100CC000E5CD0E94C90D8093000063961FAE639727
:100CD000809100008C3299F0F70163962FAD6397F5
:100CE000E20FF11D80830E94C90D8093000063967E
:100CF0003FAD63973F5F63963FAF6397E9CF6596DC
:100D0000EEADFFAD6597F182E082809100008C32FC
:100D100009F0BCCD0E94C90D809300008E3419F0FB
:100D2000833509F0B3CDF20180830E94C90D809311
:100D300000006996EEADFFAD6997518240828091C7
:100D400000008C3209F0A2CD0E94C90D80930000F2
:100D500063961FAE6397809100008C3299F0F60184
:100D600063962FAD6397E20FF11D80830E94C90D3A
:100D70008093000063963FAD63973F5F63963FAFFC
:100D80006397E9CF6796EEADFFAD6797D182C082DA
:100D9000809100008C3209F079CD0E94C90D8093BA
:100DA0000000853419F0873509F070CDF301808398
:100DB0000E94C90D809300006B96EEADFFAD6B975E
:100DC00071826082809100008C3209F05FCD0E94B8
:100DD000C90D8093000063961FAE63978091000059
:100DE0008C32B1F0EAE3F0E0EC0FFD1F63962FAD1B
:100DF0006397E20FF11D80830E94C90D809300006C
:100E000063963FAD63973F5F63963FAF6397E6CFCF
:100E10006D96EEADFFAD6D97B182A082809100001E
:100E20008C3209F033CD0E94C90D80930000639687
:100E30001FAE6397809100008C32B1F0E0E3F0E0E8
:100E4000EC0FFD1F63962FAD6397E20FF11D8083BA
:100E50000E94C90D8093000063963FAD63973F5F8A
:100E600063963FAF6397E6CF0E94C90D8093000061
:100E700063961FAE6397809100008C32B1F0EBE176
:100E8000F0E0EC0FFD1F63969FAD6397E90FF11D36
:100E900080830E94C90D809300006396EFAD639735
:100EA000EF5F6396EFAF6397E6CFA196EEADFFAD30
:100EB000A19791828082809100008C3209F0E6CC6B
:100EC0000E94C90D8093000063961FAE63978091C6
:100ED00000008C3209F4DACCE6E2F0E0EC0FFD1F02
:100EE00063962FAD6397E20FF11D80830E94C90DB9
:100EF0008093000063963FAD63973F5F63963FAF7B
:100F00006397E5CF863509F0C1CC84E093E009C052
:100F10000E94C90D80930000863509F0B7CC81E2AC
:100F200093E00E94DE0DB2CCCC59DF4F0FB6F8949F
:100F3000DEBF0FBECDBFDF91CF911F910F91FF900C
:100F4000EF90DF90CF90BF90AF909F908F907F9069
:100F50006F905F904F903F902F90089525E33AEF68
:100F60004EE85CE30E943B12089520EE3EE245E627
:100F700052E40E943B1208958F929F92AF92BF92CB
:100F8000CF92DF92EF92FF926B017C012AE037ED66
:100F900043E25CE30E943B120E94AC109B0129508B
:100FA00031092C313105E8F480E090E00E94E21034
:100FB0004B015C0120E030E048EC52E40E943B121F
:100FC0009B01AC01C701B6010E94360F20E030E062
:100FD00040E752E40E943A10A50194010E94370FA5
:100FE00003C060E070E0CB01FF90EF90DF90CF9006
:100FF000BF90AF909F908F9008958F929F92AF92E5
:10100000BF92CF92DF92EF92FF926B017C012AE0B8
:1010100037ED43E25CE30E943B120E94AC109B015F
:10102000255431092C313105E8F480E090E00E942C
:10103000E2104B015C0120E030E048EC52E40E94F9
:101040003B129B01AC01C701B6010E94360F20E0A4
:1010500030E040E752E40E943A10A50194010E945A
:10106000370F03C060E070E0CB01FF90EF90DF909E
:10107000CF90BF90AF909F908F900895CF92DF92C6
:10108000EF92FF9220E137E240E050E00E94140F1F
:1010900069017A0124E630E040E050E00E94140F3C
:1010A00085E0C80ED11C97E1C916D10430F087E164
:1010B00090E0FC01EC19FD096F01C9014E968C33DB
:1010C000910508F0CC977F936F939F938F93DF9256
:1010D000CF928CE393E09F938F938AE893E09F9362
:1010E0008F930E9413138AE893E00E94DE0D60E064
:1010F00087E00E9483028DB79EB70A960FB6F894D8
:101100009EBF0FBE8DBF8AE893E0FF90EF90DF9007
:10111000CF900C94FC023F924F925F926F927F921D
:101120008F929F92AF92BF92CF92DF92EF92FF92F7
:101130000F931F93CF93DF93CDB7DEB7E9970FB629
:10114000F894DEBF0FBECDBF9BA78AA77DA76CA773
:101150005FA74EA739AB28AB1BAB0AABDDAACCAA65
:10116000BFAAAEAA99AE88AE8DE08E01025F1F4F76
:10117000F801282F11922A95E9F7FE0131966F01A7
:1011800011928A95E9F719A618A65E01FBE1AF0E48
:10119000B11C87E0F50111928A95E9F71FA21EA202
:1011A0001DA21AA21BA21CA23E01F9E26F0E711C25
:1011B0002E0128E2420E511CCE0182964C010E9463
:1011C000EC0D882309F41CC10E94C90D8093000016
:1011D0008432A9F70E94C90D80930000873479F703
:1011E0000E94C90D809300008E3449F70E94C90DFA
:1011F00080930000873419F70E94C90D8093000086
:101200008734E9F60E94C90D809300008134B9F655
:101210000E94C90D809300008C3289F60E94C90D8E
:10122000809300008C3259F2312C809100008C3276
:1012300081F0F701E30DF11DE30DF11D082E000C07
:10124000990B918380830E94C90D80930000339491
:10125000ECCF0E94C90D80930000312C80910000DA
:101260008C3251F0F801E30DF11D80830E94C90D0D
:10127000809300003394F2CFEAA5FBA5118300838D
:10128000809100008C3209F09ACF0E94C90D8093A2
:1012900000008E3419F0833509F091CF89A70E94A0
:1012A000C90D80930000EEA5FFA571826082809138
:1012B00000008C3209F083CF0E94C90D809300009A
:1012C000312C809100008C3251F0F601E30DF11DBC
:1012D00080830E94C90D809300003394F2CFECA567
:1012E000FDA5D182C082809100008C3209F067CFC9
:1012F0000E94C90D80930000853419F0873509F0EC
:101300005ECF88A70E94C90D80930000E8A9F9A9C3
:1013100051824082809100008C3209F050CF0E94AF
:10132000C90D809300008C3209F449CF8DA30E942F
:10133000C90D8093000025E230E02C0F3D1FE8AD81
:10134000F9AD31832083809100008C3209F037CFD2
:101350000E94C90D80930000809100008C32C1F77B
:101360000E94C90D80930000312C809100008C32C6
:1013700051F0F401E30DF11D80830E94C90D8093AB
:1013800000003394F2CFEAA9FBA991828082809178
:1013900000008C3209F013CF0E94C90D8093000029
:1013A000312C809100008C3269F0EBE1F0E0EC0F21
:1013B000FD1FE30DF11D80830E94C90D8093000085
:1013C0003394EFCFECA9FDA9B182A08280910000F7
:1013D0008C3209F0F4CE0E94C90D809300008D3448
:1013E00009F0EDCE8FA30E94C90D8093000027E283
:1013F00030E02C0F3D1FEEA9FFA931832083DFCE03
:10140000E9960FB6F894DEBF0FBECDBFDF91CF9146
:101410001F910F91FF90EF90DF90CF90BF90AF9012
:101420009F908F907F906F905F904F903F90089526
:101430004F925F926F927F928F929F92AF92BF92E4
:10144000CF92DF92EF92FF920F931F93CF93DF9390
:10145000CDB7DEB760970FB6F894DEBF0FBECDBF35
:1014600029013A01E982FA820B831C8325E33AEFD2
:101470004EE85CE30E943B126D837E838F839887E6
:1014800025E33AEF4EE85CE3C301B2010E943B1250
:101490002B013C0125E33AEF4EE85CE3C601B501C0
:1014A0000E943B126B017C0125E33AEF4EE85CE3BE
:1014B00069817A818B819C810E943B129B01AC01E6
:1014C000C701B6010E94360F6B017C010E94A81271
:1014D00069877A878B879C87C301B2010E94351088
:1014E00069837A838B839C836D817E818F819885CC
:1014F0000E9435106D877E878F87988BC301B2015C
:101500000E94A8122B013C016D817E818F819885FC
:101510000E94A8124B015C01C701B6010E94351060
:101520006D837E838F839887A30192016D857E856D
:101530008F8598890E943B126B017C01A501940163
:1015400069817A818B819C810E943B122D813E8131
:101550004F8158850E943B129B01AC01C701B60127
:101560000E94360F6B017C0129813A814B815C819D
:1015700069857A858B859C850E943B12A70196011F
:101580000E94D10F20EE3EE245E652E40E943B125B
:101590006B017C0120E030E0A9010E942E12181698
:1015A00054F020E030E044EB53E4C701B6010E9460
:1015B000370F6B017C01C701B60160960FB6F89436
:1015C000DEBF0FBECDBFDF91CF911F910F91FF9076
:1015D000EF90DF90CF90BF90AF909F908F907F90D3
:1015E0006F905F904F900895CF92DF92EF92FF92AD
:1015F0000F931F93CF93DF93EC018B01FB012081AD
:10160000318142815381688179818A819B810E94E5
:10161000370F20E030E040E05FE30E943B1225E31B
:101620003AEF4EE85CE30E943B120E94A8126B0165
:101630007C01F80124813581468157816C817D814F
:101640008E819F810E94360FA70196010E943B1256
:10165000DF91CF911F910F91FF90EF90DF90CF908E
:1016600008954F925F926F927F928F929F92AF9266
:10167000BF92CF92DF92EF92FF920F931F93CF937F
:10168000DF93CDB7DEB760970FB6F894DEBF0FBE1D
:10169000CDBF69837A838B839C8329013A01ED86D0
:1016A000FE860F87188B9B01AC01C301B2010E941B
:1016B000360F25E33AEF4EE85CE30E943B1220E050
:1016C00030E040E05FE30E943B120E94A8126D836D
:1016D0007E838F83988725E33AEF4EE85CE3698148
:1016E0007A818B819C810E943B120E943510698314
:1016F0007A838B839C8325E33AEF4EE85CE3C30156
:10170000B2010E943B120E94351069877A878B874D
:101710009C87A8019701C601B5010E94360F25E3F9
:101720003AEF4EE85CE30E943B1220E030E040E0FC
:101730005FE30E943B120E94A8122B013C01298505
:101740003A854B855C8569817A818B819C810E9479
:101750003B124B015C01A3019201C301B2010E9443
:101760003B129B01AC01C501B4010E943B124B012D
:101770005C012D813E814F815885CA01B9010E94CB
:101780003B129B01AC01C501B4010E94370F6B01F4
:101790007C019B01AC0160E070E080E89FE30E9467
:1017A000360F0E94B6124B015C01C701B6010E94C0
:1017B000B612A50194010E94D10F9B01AC010E94B9
:1017C000370F20E73DE642EC5AE40E943B12609658
:1017D0000FB6F894DEBF0FBECDBFDF91CF911F9142
:1017E0000F91FF90EF90DF90CF90BF90AF909F90C0
:1017F0008F907F906F905F904F9008954F925F927F
:101800006F927F928F929F92AF92BF92CF92DF9210
:10181000EF92FF920F931F9329013A01470158015C
:1018200020E73DE642EC5AE40E943A100E94A812DA
:101830006B017C01A3019201C501B4010E94360F26
:1018400025E33AEF4EE85CE30E943B120E94A812A7
:101850009B01AC01C701B6010E943B120E94A30F7D
:1018600020E73DE642EC5AE40E943B121F910F91A3
:10187000FF90EF90DF90CF90BF90AF909F908F90B0
:101880007F906F905F904F9008958F929F92AF924C
:10189000BF92EF92FF920F931F934B015C01C8011F
:1018A000B7010E94360F25E33AEF4EE85CE30E9451
:1018B0003B120E94A812A50194010E943B121F91A5
:1018C0000F91FF90EF90BF90AF909F908F900895F1
:1018D0008F929F92AF92BF92CF92DF92EF92FF9240
:1018E00069017A019B01AC010E943B124B015C0132
:1018F000A7019601C701B6010E943B129B01AC01F2
:10190000C501B4010E94360FFF90EF90DF90CF9099
:10191000BF90AF909F908F900C94B612CF93DF93AF
:10192000CDB7DEB70E94EC0D882369F10E94C90D86
:10193000809300008432B1F70E94C90D80930000AB
:10194000873481F70E94C90D809300008E3451F7CF
:101950000E94C90D80930000863521F70E94C90DB1
:10196000809300008435F1F60E94C90D8093000039
:101970008734C1F60E94C90D8093000083E593E08F
:101980000E94DE0DCFCFDF91CF91089582E090E0ED
:101990000E94EC000E94070160E070E088E60E946F
:1019A0000F0187E00E94200180E00E9420010C943A
:1019B0001C011F93CF93DF93C82FD62F142F0E94A3
:1019C000070160E070E088E60E940F0180E00E945D
:1019D0007801812F0E9478018D2F0E9478018C2F31
:1019E0000E947801DF91CF911F910C941C011F93ED
:1019F000CF93DF93C82FD62F142F0E94070160E0EA
:101A000070E088E60E940F0180E00E942001812F93
:101A10000E9420018D2F0E9420018C2F0E94200106
:101A2000DF91CF911F910C941C01EF92FF920F93C5
:101A30001F93CF93DF937C018B01EA010E94070182
:101A400060E070E088E60E940F0180E00E942001C3
:101A50000E943E0161E070E088E60E940F010E9452
:101A60002A0190E0F701918380830E942A0190E08F
:101A7000F801918380830E94340190E099838883E8
:101A8000DF91CF911F910F91FF90EF900C941C016B
:101A9000EF92FF920F931F93CF93DF937C018B0103
:101AA000EA010E94070160E070E088E60E940F01F1
:101AB00080E00E9420010E943E0161E070E088E623
:101AC0000E940F010E94890190E0F70191838083B9
:101AD0000E94890190E0F801918380830E949A011D
:101AE00090E099838883DF91CF911F910F91FF90B0
:101AF000EF900C941C01CF93C82F0E94070160E067
:101B000070E088E60E940F018C2F0E942001CF9187
:101B10000C941C01CF930E947B0D0E943E0161E05A
:101B200070E088E60E940F010E942A01C82F0E94DF
:101B30001C018C2FCF91089580E00E948A0D0C9497
:101B4000E300CF93DF93D82FC62F0E94070160E0F8
:101B500070E088E60E940F018D2F0E9420018C2FDB
:101B60000E9420010E941C01DF91CF910895909363
:101B7000C5008093C40088E18093C1008EE080930B
:101B8000C20008959091C00095FFFCCF8093C600DD
:101B900008958091C00087FFFCCF8091C600089512
:101BA0009091C00095FFFCCF8093C600089580916E
:101BB000C00087FFFCCF8091C6000895CF93DF93CC
:101BC000EC018991882319F00E94D00DFACFDF91A2
:101BD000CF9108950C94DE0D8091C000881F882756
:101BE000881F0895FF920F931F93CF93DF93EC010B
:101BF00080E3C03197E2D90720F0C051D7428F5F10
:101C0000F8CF90E3F92EC83E93E0D90720F0C85EE4
:101C1000D340F394F8CF00E3C436D10520F0C45686
:101C2000D1090F5FF9CF10E3CA30D10518F02A9718
:101C30001F5FFACF8033A1F00E94D00D8F2D0E943C
:101C4000D00D802F0E94D00D812F0E94D00D8C2F9F
:101C5000805DDF91CF911F910F91FF900C94D00D7B
:101C600080E3F812EBCF003361F7103369F7EFCF61
:101C7000CF93DF93CDB7DEB762970FB6F894DEBF90
:101C80000FBECDBF87E690E00E94B70D14BC85B5AE
:101C9000826085BD80916E00816080936E00789433
:101CA0008BB18C708BB91A8A198A188A1F861E8686
:101CB0001D861C861B861A86198618861F821E8220
:101CC0001D821C821B821A8219828BED482E82E0B3
:101CD000582E94E6692E93E0792E24EE222E22E0EF
:101CE000322ECE0101964C0102965C0102966C01E7
:101CF00002967C018E01075F1F4F9E01255F3F4FBB
:101D0000AE01435F5F4FBE01615F7F4F0A960E9445
:101D10008E0C89859A850E940F13609386037093B9
:101D2000870380938803909389038B819C810E9411
:101D30000F136093B0037093B1038093B203909339
:101D4000B30389819A810E940F1320E030E0A9013A
:101D50006091860370918703809188039091890335
:101D60000E943010882309F4BCCF1091B003009179
:101D7000B103F090B203E090B30320E030E0A9019A
:101D8000D801F7016B2F7A2F8F2F9E2F0E943010D2
:101D9000882309F4A6CFEF92FF920F931F935F92CF
:101DA0004F927F926F920E94131384E693E00E94F9
:101DB000EA0D26E53EE04DEE5FE36091860370910B
:101DC000870380918803909189030E943B129B01B5
:101DD000462F532F682F792F4093AC035093AD03B8
:101DE0006093AE037093AF039F938F933F932F93B2
:101DF0003F922F927F926F920E94131384E693E09A
:101E00000E94EA0D0FB6F894DEBF0FBECDBF69CFBA
:101E1000991B79E004C0991F961708F0961B881F3C
:101E20007A95C9F780950895A1E21A2EAA1BBB1BCB
:101E3000FD010DC0AA1FBB1FEE1FFF1FA217B30796
:101E4000E407F50720F0A21BB30BE40BF50B661FAC
:101E5000771F881F991F1A9469F760957095809570
:101E600090959B01AC01BD01CF0108955058BB274F
:101E7000AA270E944E0F0C94E0110E94A71138F07F
:101E80000E94AE1120F039F49F3F19F426F40C940F
:101E900069110EF4E095E7FB0C946311E92F0E94A1
:101EA000051258F3BA17620773078407950720F0E5
:101EB00079F4A6F50C9427120EF4E0950B2EBA2FA8
:101EC000A02D0B01B90190010C01CA01A001112440
:101ED000FF27591B99F0593F50F4503E68F11A16EC
:101EE000F040A22F232F342F4427585FF3CF46957D
:101EF00037952795A795F0405395C9F77EF41F169F
:101F0000BA0B620B730B840BBAF09150A1F0FF0F68
:101F1000BB1F661F771F881FC2F70EC0BA0F621F54
:101F2000731F841F48F4879577956795B795F79544
:101F30009E3F08F0B0CF9395880F08F09927EE0FD9
:101F40009795879508959F939F77EEE389379E072E
:101F500028F4E8E6F0E00E9493110CC00E941F11E3
:101F60009058A2EA2AED3FE049EC5FE30E944E0F51
:101F70000E94E0110F9007FC905808950E94A7114D
:101F800060F080E891E009F49EEF0E94AE1128F025
:101F900040E851E071F45EEF0CC00C9469110C94B0
:101FA0002712E92FE0780E94051240F3092E052A36
:101FB000B1F3261737074807590738F00E2E07F8F0
:101FC000E02569F0E025E0640AC0EF6307F80094BB
:101FD00007FADB01B9019D01DC01CA01AD01EF93F4
:101FE0000E9451100E94E0110E9401105F91552340
:101FF00039F02BED3FE049E450FD49EC0C94370FEC
:102000000895DF93DD27B92FBF7740E85FE3161609
:10201000170648075B0718F4D92F0E9433129F93C5
:102020008F937F936F930E94F612ECE7F0E00E948B
:102030006C110E94E0112F913F914F915F910E948E
:102040004E12DD2351F09058A2EA2AED3FE049EC10
:102050005FE3D0785D270E944E0FDF910C94E01172
:102060000E943F1108F481E008950E94B711E395A2
:102070000C94F1110E944E100C94E0110E94AE11CC
:1020800058F00E94A71140F029F45F3F29F00C940A
:10209000631151110C9428120C9469110E940512BD
:1020A00068F39923B1F3552391F3951B550BBB2787
:1020B000AA2762177307840738F09F5F5F4F220FCC
:1020C000331F441FAA1FA9F335D00E2E3AF0E0E8C3
:1020D00032D091505040E695001CCAF72BD0FE2F0D
:1020E00029D0660F771F881FBB1F261737074807A1
:1020F000AB07B0E809F0BB0B802DBF01FF27935859
:102100005F4F3AF09E3F510578F00C9463110C94A8
:1021100028125F3FE4F3983ED4F386957795679550
:10212000B795F7959F5FC9F7880F911D969587958D
:1021300097F90895E1E0660F771F881FBB1F6217AC
:1021400073078407BA0720F0621B730B840BBA0B6A
:10215000EE1F88F7E09508950E94B3106894B111BE
:102160000C94281208950E940D1288F09F5798F041
:10217000B92F9927B751B0F0E1F0660F771F881F8C
:10218000991F1AF0BA95C9F714C0B13091F00E94A6
:102190002712B1E008950C942712672F782F882713
:1021A000B85F39F0B93FCCF3869577956795B395CD
:1021B000D9F73EF490958095709561957F4F8F4F3C
:1021C0009F4F0895E89409C097FB3EF49095809541
:1021D000709561957F4F8F4F9F4F9923A9F0F92FED
:1021E00096E9BB279395F695879577956795B7956B
:1021F000F111F8CFFAF4BB0F11F460FF1BC06F5F51
:102200007F4F8F4F9F4F16C0882311F096E911C062
:10221000772321F09EE8872F762F05C0662371F083
:1022200096E8862F70E060E02AF09A95660F771F97
:10223000881FDAF7880F9695879597F90895DF93A9
:10224000CF931F930F938B01EC01E9EAF0E00E941A
:102250006C110E94E0119801AE018B01EC0160E06D
:1022600070E080E89FE30E94360F0E94B61298014A
:10227000AE010F911F91CF91DF910C944E12990FE7
:102280000008550FAA0BE0E8FEEF16161706E80740
:10229000F907C0F012161306E407F50798F0621B61
:1022A000730B840B950B39F40A2661F0232B242B36
:1022B000252B21F408950A2609F4A140A6958FEF55
:1022C000811D811D089597F99F6780E870E060E0A7
:1022D00008959FEF80EC0895DF93CF931F930F93A2
:1022E000FF92EF92DF927B018C01689406C0DA2E98
:1022F000EF010E944E12FE01E894A59125913591BF
:1023000045915591A6F3EF010E944E0FFE019701F2
:10231000A801DA9469F7DF90EF90FF900F911F9179
:10232000CF91DF9108959F938F937F936F93FF9346
:10233000EF939B01AC010E943B12EF91FF910E9431
:102340006C112F913F914F915F910C943B1200249F
:102350000A941616170618060906089500240A940A
:10236000121613061406050608950C9469110E94AE
:102370000D12D8F3E894E0E0BB279F57F0F02AED68
:102380003FE049EC06C0EE0FBB0F661F771F881FAA
:1023900028F0B23A62077307840728F0B25A620B3A
:1023A000730B840BE3959A9572F7803830F49A9505
:1023B000BB0F661F771F881FD2F790480C94FC1242
:1023C000092E0394000C11F4882352F0BB0F40F443
:1023D000BF2B11F460FF04C06F5F7F4F8F4F9F4F83
:1023E0000895EF93E0FF07C0A2EA2AED3FE049EC31
:1023F0005FEB0E944E0F0E94E0110F90039401FCCE
:102400009058E1EDF0E00C94931157FD9058440F73
:10241000551F59F05F3F71F04795880F97FB991F43
:1024200061F09F3F79F08795089512161306140600
:10243000551FF2CF4695F1DF08C01616170618068D
:10244000991FF1CF86957105610508940895E89468
:10245000BB2766277727CB0197F908950E943F1184
:1024600008F48FEF08959B01AC0160E070E080E814
:102470009FE30C943A100E944E120C94E0110E94BB
:10248000A71138F00E94AE1120F0952311F00C94A2
:1024900063110C94691111240C9428120E940512E6
:1024A00070F3959FC1F3950F50E0551F629FF001A7
:1024B000729FBB27F00DB11D639FAA27F00DB11DC0
:1024C000AA1F649F6627B00DA11D661F829F222749
:1024D000B00DA11D621F739FB00DA11D621F839FD0
:1024E000A00D611D221F749F3327A00D611D231FA6
:1024F000849F600D211D822F762F6A2F11249F57F4
:1025000050409AF0F1F088234AF0EE0FFF1FBB1FF6
:10251000661F771F881F91505040A9F79E3F5105B5
:1025200080F00C9463110C9428125F3FE4F3983E02
:10253000D4F3869577956795B795F795E7959F5F5F
:10254000C1F7FE2B880F911D9695879597F90895F1
:102550009F930E94B7110F9007FCEE5F0C94F1114E
:1025600019F416F40C9469110C94FA120E940D12CD
:10257000B8F39923C9F3B6F39F57550B87FF0E9411
:1025800008130024A0E640EA9001805856959795DC
:1025900028F4805C660F771F881F20F02617370706
:1025A000480730F4621B730B840B202931294A2B16
:1025B000A69517940794202531254A2758F7660FCA
:1025C000771F881F20F026173707480730F4620B63
:1025D000730B840B200D311D411DA09581F7B901AE
:1025E000842F9158880F9695879508959B01AC018B
:1025F0000C943B129F3F31F0915020F487957795D2
:102600006795B795880F911D9695879597F90895C9
:1026100091505040660F771F881FD2F708956627A4
:1026200077270C941615AEE0B0E0E9E1F3E10C94E5
:1026300051170D891E8986E08C831A8309838FEFD9
:102640009FE79E838D83AE01475E5F4F6F89788DD4
:10265000CE0101960E943513EF81F885E00FF11F3E
:1026600010822E96E4E00C946D17ABE0B0E0EBE343
:10267000F3E10C9443176C017B018A01FC01178282
:102680001682838181FFCCC1CE0101963C01F60107
:102690009381F70193FD859193FF81917F018823B9
:1026A00009F4BAC1853239F493FD859193FF819184
:1026B0007F01853229F4B60190E00E949B16E7CF96
:1026C000912C212C312CFFE1F315D8F08B3279F0CD
:1026D00038F4803279F08332A1F4232D20611DC0BB
:1026E0008D3261F0803369F4232D216016C0832D73
:1026F0008260382EE32DE4603E2E2AC0F32DF86070
:102700001DC037FC2DC020ED280F2A3040F08E323E
:10271000B9F436FC81C1232D2064322E19C036FE57
:1027200006C08AE0989E200D1124922E11C0EAE086
:102730002E9E200D1124222EF32DF0623F2E08C074
:102740008C3621F4832D8068382E02C0883641F4FF
:10275000F70193FD859193FF81917F018111B3CFA3
:10276000982F9F7D9554933028F40C5F1F4F9FE363
:1027700099830DC0833631F0833771F0833509F0CA
:1027800059C021C0F801808189830E5F1F4F8824C2
:102790008394912C530113C02801F2E04F0E511C79
:1027A000F801A080B18036FE03C0692D70E002C040
:1027B0006FEF7FEFC5010E9490164C018201F32D4F
:1027C000FF773F2E16C0280122E0420E511CF8016F
:1027D000A080B18036FE03C0692D70E002C06FEFAB
:1027E0007FEFC5010E9485164C01F32DF0683F2E46
:1027F000820133FC1BC0822D90E088169906B0F44C
:10280000B60180E290E00E949B162A94F4CFF50175
:1028100037FC859137FE81915F01B60190E00E94FF
:102820009B1621102A9421E0821A910881149104A8
:1028300071F7E8C0843611F0893641F5F80137FEAA
:1028400007C060817181828193810C5F1F4F08C036
:1028500060817181072E000C880B990B0E5F1F4F52
:10286000F32DFF763F2E97FF09C0909580957095C8
:1028700061957F4F8F4F9F4FF0683F2E2AE030E0E9
:10288000A3010E94D716882E861845C0853731F4DB
:10289000232D2F7EB22E2AE030E025C0932D997F84
:1028A000B92E8F36C1F018F4883579F0B5C080376D
:1028B00019F0883721F0B0C0E92FE061BE2EB4FED8
:1028C0000DC0FB2DF460BF2E09C034FE0AC0292FB5
:1028D0002660B22E06C028E030E005C020E130E0DE
:1028E00002C020E132E0F801B7FE07C060817181CB
:1028F000828193810C5F1F4F06C06081718180E0EF
:1029000090E00E5F1F4FA3010E94D716882E8618F5
:10291000FB2DFF773F2E36FE0DC0232D2E7FA22EDE
:10292000891458F434FE0BC032FC09C0832D8E7E0E
:10293000A82E05C0B82CA32C03C0B82C01C0B92CFC
:10294000A4FE0FC0FE01E80DF11D8081803321F44B
:102950009A2D997EA92E09C0A2FE06C0B394B39405
:1029600004C08A2D867809F0B394A3FC11C0A0FEA0
:1029700006C0B21488F4280C922C9B180EC0B21416
:1029800060F4B60180E290E00E949B16B394F7CF0A
:10299000B21418F42B1802C0982C212CA4FE10C0DD
:1029A000B60180E390E00E949B16A2FE17C0A1FC36
:1029B00003C088E790E002C088E590E0B6010CC053
:1029C0008A2D867859F0A1FE02C08BE201C080E218
:1029D000A7FC8DE2B60190E00E949B16891438F4A2
:1029E000B60180E390E00E949B169A94F7CF8A94F8
:1029F000F301E80DF11D8081B60190E00E949B1665
:102A00008110F5CF222009F442CEB60180E290E099
:102A10000E949B162A94F6CFF6018681978102C008
:102A20008FEF9FEF2B96E2E10C945F17A0E0B0E0F0
:102A3000ECE1F5E10C944917EC016B0161157105AE
:102A400019F0FB01918380837E01FFEFEF1AFF0AEB
:102A50000881802F90E00E946416892B11F0E70115
:102A6000F3CF0D3239F47E0182E0E80EF11C0981CA
:102A700011E008C00B3229F47E0192E0E90EF11C4E
:102A8000098110E0E701219743E050E068EF70E032
:102A9000CE010E946D16892BC1F4239645E050E0CB
:102AA00063EF70E0CE010E946D16892B09F4259624
:102AB000C114D10419F0F601D183C0831111F6C0FD
:102AC00060E070E080E89FE7FAC043E050E060EF2C
:102AD00070E0CE010E946D16892B59F4C114D10407
:102AE00009F4E9C0F2E0EF0EF11CF601F182E08298
:102AF000E2C020E030E0A901C0E0D0E0F70180EDC5
:102B0000A82EA00E89E08A1530F1912F9260B92E7F
:102B1000812F887012FF04C0811124C0219622C029
:102B200081112197A5E0B0E00E943817DC01CB01AC
:102B3000880F991FAA1FBB1F9C01AD012A0D311DD3
:102B4000411D511D283989E93807480789E158078F
:102B500048F0166006C09EEFA9120AC013FD40C0DF
:102B60001860B12E8FEFE81AF80A00811B2DC6CF2E
:102B7000802F8F7D8534A1F580818D3211F4106115
:102B800006C08B3221F0319661E070E004C0818193
:102B9000329662E070E080538A3018F0E61BF70B43
:102BA0001FC060E070E060389CE079075CF4DB01F6
:102BB000AA0FBB1FAA0FBB1F6A0F7B1F660F771FD1
:102BC000680F711D3196DF0111978C9180538A3007
:102BD00050F314FF03C0719561957109C60FD71F9B
:102BE00011FF08C0C114D10429F0CF010197F601EB
:102BF00091838083CA01B9010E94E210212F2370C2
:102C0000233019F04B015C0106C04B015C01B7FA9F
:102C1000B094B7F8B09420E030E0A901C501B40148
:102C20000E943010882309F43EC0D7FF06C0D1951A
:102C3000C195D1090FE011E002C007E211E068017F
:102C4000F8E1CF1AD10890E2E92EF12CCE15DF057C
:102C500074F0F8012591359145915491C501B40165
:102C60000E943B124B015C01CE19DF09EFCF0450EB
:102C70001109F594E7940C151D0541F78A2D880F6D
:102C80008B2D881F8F3F49F020E030E0A901C5015E
:102C9000B4010E943010811106C082E290E090934E
:102CA000B5038093B403C501B40109C060E070E0CE
:102CB00080E89FEF04C060E070E080EC9FE7CDB754
:102CC000DEB7ECE00C94651791110C943517803247
:102CD00019F089508550C8F70895FB01DC01415077
:102CE000504088F08D9181341CF08B350CF4805E5F
:102CF000659161341CF06B350CF4605E861B6111CC
:102D000071F3990B0895881BFCCFFC01059061506D
:102D100070400110D8F7809590958E0F9F1F0895F1
:102D2000FC016150704001900110D8F7809590959A
:102D30008E0F9F1F08950F931F93CF93DF93FB0177
:102D4000238121FD03C08FEF9FEF2CC022FF16C00F
:102D500046815781248135814217530744F4A0816D
:102D6000B1819D012F5F3F4F318320838C9326815A
:102D700037812F5F3F4F3783268314C08B01EC01CF
:102D8000FB010084F185E02D0995892BE1F6D8013E
:102D900016968D919C911797019617969C938E93FA
:102DA0001697CE01DF91CF911F910F910895FA01EF
:102DB000AA27283051F1203181F1E8946F936E7F7A
:102DC0006E5F7F4F8F4F9F4FAF4FB1E03ED0B4E06B
:102DD0003CD0670F781F891F9A1FA11D680F791FAC
:102DE0008A1F911DA11D6A0F711D811D911DA11DBD
:102DF00020D009F468943F912AE0269F11243019CD
:102E0000305D3193DEF6CF010895462F4770405D67
:102E10004193B3E00FD0C9F7F6CF462F4F70405D16
:102E20004A3318F0495D31FD4052419302D0A9F771
:102E3000EACFB4E0A6959795879577956795BA956B
:102E4000C9F700976105710508959B01AC010A2E31
:102E500006945795479537952795BA95C9F7620F08
:102E6000731F841F951FA01D089599278827089513
:102E70000E947A17A59F900DB49F900DA49F800D7E
:102E8000911D112408952F923F924F925F926F925D
:102E90007F928F929F92AF92BF92CF92DF92EF92EA
:102EA000FF920F931F93CF93DF93CDB7DEB7CA1B6B
:102EB000DB0B0FB6F894DEBF0FBECDBF09942A8896
:102EC000398848885F846E847D848C849B84AA843E
:102ED000B984C884DF80EE80FD800C811B81AA81CB
:102EE000B981CE0FD11D0FB6F894DEBF0FBECDBF96
:102EF000ED010895A29FB001B39FC001A39F700D83
:102F0000811D1124911DB29F700D811D1124911DF1
:062F10000895F894FFCFC4
:102F1600000000000000002F00000007000700145A
:102F26007F147F14242A7F2A1223130864623649E9
:102F36005522500005030000001C224100004122DA
:102F46001C0014083E081408083E08080000A0608B
:102F56000008080808080060600000201008040245
:102F66003E5149453E00427F40004261514946215B
:102F760041454B311814127F1027454545393C4AC7
:102F86004949300171090503364949493606494917
:102F9600291E00363600000056360000081422416D
:102FA60000141414141400412214080201510906D5
:102FB600324959513E7C1211127C7F494949363EAD
:102FC600414141227F4141221C7F494949417F09B4
:102FD6000909013E4149497A7F0808087F00417F77
:102FE60041002040413F017F081422417F4040407C
:102FF600407F020C027F7F0408107F3E4141413E24
:103006007F090909063E4151215E7F091929464675
:103016004949493101017F01013F4040403F1F209E
:1030260040201F3F4038403F631408146307087070
:1030360008076151494543007F41410055AA55AAF9
:10304600550041417F0004020102044040404040D7
:10305600000305000020545454787F48444438380F
:1030660044444420384444487F3854545418087E15
:1030760009010218A4A4A47C7F0804047800447DF6
:1030860040004080847D007F1028440000417F403E
:10309600007C041804787C080404783844444438D6
:1030A600FC2424241818242418FC7C08040408484A
:1030B60054545420043F4440203C4040207C1C2073
:1030C60040201C3C4030403C44281028441CA0A012
:1030D600A07C4464544C4400107C82000000FF0035
:1030E6000000827C10000006090906483A20252EB9
:1030F60032662000533A20252E3266200A004164AB
:10310600647265737320666F756E643A200030785A
:1031160025782000524D43202D2D20496E76616C76
:10312600696400524D43202D2D496E76616C6964A9
:1031360000494E56414C4944200A005369676E6166
:103146006C202D2D496E76616C69640054696D653D
:103156003A20253032643A253032643A25303264DA
:10316600200A0056544720726563696576656400D7
:00000001FF
